:100000000C94FE000C940E010C940E010C940E0145
:100010000C940E010C940E010C940E010C940E0124
:100020000C940E010C940E010C940E010C940E0114
:100030000C940E010C940E010C940E010C940E0104
:100040000C940E010C940E010C940E010C940E01F4
:100050000C940E010C940E010C940E010C940E01E4
:100060000C940E010C940E010C940E010C940E01D4
:100070000C940E010C940E010C940E010C940E01C4
:100080000C940E010C940E010C940E010C940E01B4
:100090000C940E010C940E010C940E010C940E01A4
:1000A0000C940E010C940E010C940E010C940E0194
:1000B0000C940E010C940E010C940E010C940E0184
:1000C0000C940E010C940E010C940E010C940E0174
:1000D0000C940E010C940E010C940E010C940E0164
:1000E0000C940E010C940E010C940E010C940E0154
:1000F0000C940E010C940E010C940E010C940E0144
:100100000C940E010C940E010C940E010C940E0133
:100110000C940E010C940E010C940E010C940E0123
:100120000C940E010C940E010C940E010C940E0113
:100130000C940E010C940E010C940E010C940E0103
:100140000C940E010C940E010C940E010C940E01F3
:100150000C940E010C940E010C940E010C940E01E3
:100160000C940E010C940E010C940E010C940E01D3
:100170000C940E010C940E010C940E010C940E01C3
:100180000C940E010C940E010C940E010C940E01B3
:100190000C940E010C940E010C940E010C940E01A3
:1001A0000C940E010C940E010C940E010C940E0193
:1001B0000C940E010C940E010C940E010C940E0183
:1001C0000C940E010C940E010C940E010C940E0173
:1001D0000C940E010C940E010C940E010C940E0163
:1001E0000C940E010C940E010C940E010C940E0153
:1001F0000C940E010C940E010C940E0111241FBEE0
:10020000CFEFCDBFDFE3DEBF00E00CBF18BE19BEED
:100210001ABE1BBE0E9469020C94BD040C9400001F
:1002200081E880932206E0E4F2E082E0808380E1CE
:10023000818380E3828384E0848381E0808386E01D
:1002400080A38FE381A312A2089585E080934002EA
:10025000E0E4F2E083A180FFFDCF60916402709141
:10026000650280E090E00E94990320E030E040EADF
:1002700050E40E942C0420E030EE4FEF54E40E9442
:10028000F1020895E0EEF6E087E3818393E395833E
:100290009FEF9093210790930107E0E4F4E091E051
:1002A0009083138A90E4928B99E1908B878B168AC6
:1002B00081E2848B08950000000040E050EA67E38B
:1002C00070E00BB66BBFFA0180810BBE8823CCF3C4
:1002D0000895CF93C82F0E945B0141E050EA67E385
:1002E00070E00BB66BBFFA01C0830BBECF910895CF
:1002F0008F929F92AF92BF92CF92DF92EF92FF9236
:100300004B015C010E9463036B017C0180E38C0D57
:100310000E9469018EE20E946901DD24B601DD0CB4
:10032000880B990B0E949B039B01AC01C501B40192
:100330000E94840220E030E040E251E40E942C045C
:100340004B015C010E9463036B017C0180E38C0D17
:100350000E946901DD24B601DD0C880B990B0E9417
:100360009B039B01AC01C501B4010E94840220E003
:1003700030E040E251E40E942C040E94630380E3D9
:10038000860F0E94690186E50E946901FF90EF9047
:10039000DF90CF90BF90AF909F908F900895CF93B4
:1003A000DF9300D01F92CDB7DEB719821A821B826D
:1003B0001C8289819A81AB81BC81823A9740A105D8
:1003C000B105A0F489819A81AB81BC810196A11D00
:1003D000B11D89839A83AB83BC8389819A81AB8168
:1003E000BC81823A9740A105B10560F32496CDBF48
:1003F000DEBFDF91CF9108950E945B0121E080E094
:1004000090EAA7E3B0E00BB6ABBFFC0120830BBEC4
:100410000895CF93882311F0C0E401C0C0E06F704D
:10042000C62B0E945B01C06880E090EAA7E3B0E0C1
:100430000BB6ABBFFC01C0830BBECF9108950E94E9
:10044000CF0128E380E090EAA7E3B0E00BB6ABBFB2
:10045000FC0120830BBE0E945B0128E380E090EA50
:10046000A7E3B0E00BB6ABBFFC0120830BBE0E943C
:100470005B012CE080E090EAA7E3B0E00BB6ABBFF5
:10048000FC0120830BBE0E94FC010E945B0126E060
:1004900080E090EAA7E3B0E00BB6ABBFFC0120839D
:1004A0000BBE60E080E00E94090208950E945B019B
:1004B00022E080E090EAA7E3B0E00BB6ABBFFC011E
:1004C00020830BBE0E945B0160E080E00E94090275
:1004D00008950E9442010E941F020E9410010E9482
:1004E00056020E9425016B017C012AE037ED43E2B0
:1004F0005CE30E942704882324F0C701B6010E9410
:1005000078010E94CF01EBCF5058BB27AA270E9449
:100510009C020C94ED030E94DF0338F00E94E60376
:1005200020F039F49F3F19F426F40C94DC030EF408
:10053000E095E7FB0C94D603E92F0E94FE0358F3E5
:10054000BA17620773078407950720F079F4A6F5B8
:100550000C9420040EF4E0950B2EBA2FA02D0B0165
:10056000B90190010C01CA01A0011124FF27591BF8
:1005700099F0593F50F4503E68F11A16F040A22FFE
:10058000232F342F4427585FF3CF4695379527956F
:10059000A795F0405395C9F77EF41F16BA0B620B6E
:1005A000730B840BBAF09150A1F0FF0FBB1F661FB5
:1005B000771F881FC2F70EC0BA0F621F731F841FF8
:1005C00048F4879577956795B795F7959E3F08F01E
:1005D000B0CF9395880F08F09927EE0F97958795E0
:1005E00008950E9405030C94ED030E94E60358F061
:1005F0000E94DF0340F029F45F3F29F00C94D603FA
:1006000051110C9421040C94DC030E94FE0368F346
:100610009923B1F3552391F3951B550BBB27AA27BB
:1006200062177307840738F09F5F5F4F220F331FF5
:10063000441FAA1FA9F335D00E2E3AF0E0E832D0BD
:1006400091505040E695001CCAF72BD0FE2F29D0C0
:10065000660F771F881FBB1F261737074807AB0792
:10066000B0E809F0BB0B802DBF01FF2793585F4F07
:100670003AF09E3F510578F00C94D6030C94210477
:100680005F3FE4F3983ED4F3869577956795B795E9
:10069000F7959F5FC9F7880F911D9695879597F9F4
:1006A0000895E1E0660F771F881FBB1F621773076D
:1006B0008407BA0720F0621B730B840BBA0BEE1F82
:1006C00088F7E09508950E946A036894B1110C942C
:1006D000210408950E94060488F09F5798F0B92FCE
:1006E0009927B751B0F0E1F0660F771F881F991F67
:1006F0001AF0BA95C9F714C0B13091F00E942004E5
:10070000B1E008950C942004672F782F8827B85FF4
:1007100039F0B93FCCF3869577956795B395D9F7BE
:100720003EF490958095709561957F4F8F4F9F4FC8
:100730000895E89409C097FB3EF4909580957095D4
:1007400061957F4F8F4F9F4F9923A9F0F92F96E91D
:10075000BB279395F695879577956795B795F11192
:10076000F8CFFAF4BB0F11F460FF1BC06F5F7F4F2F
:100770008F4F9F4F16C0882311F096E911C0772341
:1007800021F09EE8872F762F05C0662371F096E84A
:10079000862F70E060E02AF09A95660F771F881F19
:1007A000DAF7880F9695879597F9089597F99F67D7
:1007B00080E870E060E008959FEF80EC08950024E9
:1007C0000A941616170618060906089500240A94B6
:1007D00012161306140605060895092E0394000C3C
:1007E00011F4882352F0BB0F40F4BF2B11F460FFCB
:1007F00004C06F5F7F4F8F4F9F4F089557FD9058F4
:10080000440F551F59F05F3F71F04795880F97FBD4
:10081000991F61F09F3F79F087950895121613068E
:100820001406551FF2CF4695F1DF08C016161706BD
:100830001806991FF1CF86957105610508940895F2
:10084000E894BB2766277727CB0197F908950E9484
:10085000990408F48FEF08950E943F040C94ED036F
:100860000E94DF0338F00E94E60320F0952311F088
:100870000C94D6030C94DC0311240C9421040E94E4
:10088000FE0370F3959FC1F3950F50E0551F629FD3
:10089000F001729FBB27F00DB11D639FAA27F00DD9
:1008A000B11DAA1F649F6627B00DA11D661F829F00
:1008B0002227B00DA11D621F739FB00DA11D621FE5
:1008C000839FA00D611D221F749F3327A00D611D02
:1008D000231F849F600D211D822F762F6A2F1124E4
:1008E0009F5750409AF0F1F088234AF0EE0FFF1F17
:1008F000BB1F661F771F881F91505040A9F79E3F6E
:10090000510580F00C94D6030C9421045F3FE4F36E
:10091000983ED4F3869577956795B795F795E795C3
:100920009F5FC1F7FE2B880F911D9695879597F9CC
:100930000895990F0008550FAA0BE0E8FEEF161670
:100940001706E807F907C0F012161306E407F507C3
:1009500098F0621B730B840B950B39F40A2661F037
:10096000232B242B252B21F408950A2609F4A140DA
:0E097000A6958FEF811D811D0895F894FFCF8D
:00000001FF
