:100000000C9442010C9460010C9460010C9460010A
:100010000C9460010C9460010C9460010C946001DC
:100020000C9460010C9460010C9460010C946001CC
:100030000C9460010C9460010C9460010C946001BC
:100040000C9460010C9460010C9460010C946001AC
:100050000C9460010C9460010C9460010C9460019C
:100060000C9460010C9460010C9460010C9460018C
:100070000C9460010C9460010C9460010C9460017C
:100080000C9460010C9460010C9460010C9460016C
:100090000C9460010C9460010C9460010C9460015C
:1000A0000C9460010C9460010C9460010C9460014C
:1000B0000C9460010C9460010C9460010C94FE029D
:1000C0000C9460010C9460010C9460010C9460012C
:1000D0000C9460010C9460010C9460010C9460011C
:1000E0000C9460010C9460010C9460010C9460010C
:1000F0000C9460010C9460010C9460010C946001FC
:100100000C9460010C9460010C9460010C946001EB
:100110000C9460010C9460010C9460010C946001DB
:100120000C9460010C9460010C9460010C946001CB
:100130000C9460010C9460010C9460010C946001BB
:100140000C9460010C9460010C9460010C946001AB
:100150000C9460010C9460010C9460010C9460019B
:100160000C9460010C9460010C9460010C9460018B
:100170000C9460010C9460010C9460010C9460017B
:100180000C9460010C9460010C9460010C9460016B
:100190000C9460010C9460010C9460010C9460015B
:1001A0000C9460010C9460010C9460010C9460014B
:1001B0000C9460010C9460010C9460010C9460013B
:1001C0000C9460010C9460010C9460010C9460012B
:1001D0000C9460010C9460010C9460010C9460011B
:1001E0000C9460010C9460010C9460010C9460010B
:1001F0000C9460010C9460010C946001F4028A027A
:100200008A028A028A028A028A02F9028A028A021F
:100210008A028A028A0299029C02A402AC02B402F7
:10022000BC02C402CA02D002D6028A028A028A0230
:100230008A028A028A028A02DC02E202E802EE02F2
:100240000C94F4020C94DC020C94D0020C94CA02BC
:100250000C94F9020C94BC020C94C4020C94990204
:100260000C94B4020C94AC020C949C020C94A40266
:100270000C94D6020C94E2020C94E8020C94EE0268
:100280000C948A0211241FBECFEFCDBFDFE3DEBF87
:1002900000E00CBF18BE19BE1ABE1BBE11E2A0E0E2
:1002A000B0E2EEEEF8E000E00BBF02C007900D9266
:1002B000A030B107D9F71BBE0E944D020C94750403
:1002C0000C940000CF93DF9322E020938006C0E0DF
:1002D000DAE0288319821A821B821C8221E02E8395
:1002E0001F8220E030E040E852E40E94FF039B01BF
:1002F000AC0160E074E284E799E40E940D030E947F
:100300007F036EA37FA3DF91CF910895E0E0F1E03A
:10031000108290E4908395E2908B118A99E5928BFC
:1003200090E8938B20E830E0248B358B168A81117E
:1003300011C080E090E2808F092E000CAA0BBB0B4D
:10034000492F5A2F6B2F7727418FCD01AA27BB2723
:10035000828F12C080E890E2E0E0F1E0808F092E09
:10036000000CAA0BBB0B492F5A2F6B2F7727418FFD
:10037000CD01AA27BB27828FE0E0F1E088E3848FDC
:1003800083E0858F168E80E8808380898068808BEB
:10039000089581E08093220684E080932106E0E2C4
:1003A000F3E088E18283118285E08083089580EF05
:1003B0008093A0068FE08093A20680E18093B00630
:1003C0008093B1068093B2068093B30608950F938D
:1003D0001F93CF93DF9324E030E080E261E070E090
:1003E000A4EAB6E0E8EAF6E0C4E4D3E412E401E407
:1003F000AB01022E02C0440F551F0A94E2F74C9342
:10040000000000009081913101F1923101F19431AD
:1004100001F1983101F1913201F1923201F19432FE
:1004200001F1983201F1913401F1923401F19434E7
:1004300001F1983401F1913801F1923801F19438C9
:1004400001F19838F9F481E31DC08C2F1BC08D2F6A
:1004500019C0812F17C0802F15C083E213C089E314
:1004600011C086E30FC083E30DC080E30BC088E3B7
:1004700009C085E307C082E305C08AE203C087E3C1
:1004800001C084E32F5F3F4F2830310509F0B0CF22
:10049000DF91CF911F910F9108950E94C90181E0D2
:1004A0000E9486010E94D70160E070E088EC92E42F
:1004B0000E94620181E08093A200789480E2C0E013
:1004C000DAE00F2EF8E18F2E912CF02D0F2EFBE1AC
:1004D000AF2EB12CF02D0F2EFDE1CF2ED12CF02D13
:1004E0000F2EFFE0EF2EF12CF02D01E110E00F2E8A
:1004F000F3E16F2E712CF02D0F2EF6E14F2E512CC3
:10050000F02D0F2EFAE12F2E312CF02D04C00E9479
:10051000E70101C080E28032D1F390E0FC01B397A3
:10052000E232F105B8F78827E250FF4F8F4F0C9465
:100530006C04188280E2EFCF82E088838CE990E03F
:100540008EA39FA380E2E7CF82E088838EE490E0D1
:100550008EA39FA380E2DFCF82E0888384E390E0D4
:100560008EA39FA380E2D7CF82E0888387E290E0CA
:100570008EA39FA380E2CFCF82E088838FE190E0BB
:100580008EA39FA380E2C7CF82E088832EA23FA2E2
:1005900080E2C1CF82E088834EA25FA280E2BBCF1F
:1005A00082E088836EA27FA280E2B5CF82E088835A
:1005B0000EA31FA380E2AFCF82E08883EEA2FFA24A
:1005C00080E2A9CF81E08883CEA2DFA280E2A3CF20
:1005D00081E08883AEA2BFA280E29DCF81E08883C4
:1005E0008EA29FA280E297CF80E00E94860180E2E7
:1005F00092CF81E00E94860180E28DCF1F920F9200
:100600000FB60F92112408B60F9218BE0F9008BEB5
:100610000F900FBE0F901F9018950E9421030C940D
:10062000C5030E94BE0358F00E94B70340F029F4AE
:100630005F3F29F00C94AE0351110C94F9030C9414
:10064000B4030E94D60368F39923B1F3552391F3C1
:10065000951B550BBB27AA2762177307840738F031
:100660009F5F5F4F220F331F441FAA1FA9F335D08E
:100670000E2E3AF0E0E832D091505040E695001C42
:10068000CAF72BD0FE2F29D0660F771F881FBB1FFC
:10069000261737074807AB07B0E809F0BB0B802DDA
:1006A000BF01FF2793585F4F3AF09E3F510578F006
:1006B0000C94AE030C94F9035F3FE4F3983ED4F33B
:1006C000869577956795B795F7959F5FC9F7880FDA
:1006D000911D9695879597F90895E1E0660F771F2C
:1006E000881FBB1F621773078407BA0720F0621BBD
:1006F000730B840BBA0BEE1F88F7E09508950E94E8
:10070000DE0388F09F5798F0B92F9927B751B0F0C2
:10071000E1F0660F771F881F991F1AF0BA95C9F785
:1007200014C0B13091F00E94F803B1E008950C9428
:10073000F803672F782F8827B85F39F0B93FCCF3DB
:10074000869577956795B395D9F73EF49095809502
:10075000709561957F4F8F4F9F4F089597F99F67D1
:1007600080E870E060E008959FEF80EC0895002439
:100770000A941616170618060906089500240A9406
:1007800012161306140605060895092E0394000C8C
:1007900011F4882352F0BB0F40F4BF2B11F460FF1B
:1007A00004C06F5F7F4F8F4F9F4F089557FD905844
:1007B000440F551F59F05F3F71F04795880F97FB25
:1007C000991F61F09F3F79F08795089512161306DF
:1007D0001406551FF2CF4695F1DF08C0161617060E
:1007E0001806991FF1CF8695710561050894089543
:1007F000E894BB2766277727CB0197F908950E94D5
:1008000012040C94C5030E94B70338F00E94BE0383
:1008100020F0952311F00C94AE030C94B403112432
:100820000C94F9030E94D60370F3959FC1F3950FC2
:1008300050E0551F629FF001729FBB27F00DB11D64
:10084000639FAA27F00DB11DAA1F649F6627B00DF4
:10085000A11D661F829F2227B00DA11D621F739FDD
:10086000B00DA11D621F839FA00D611D221F749FEB
:100870003327A00D611D231F849F600D211D822F32
:10088000762F6A2F11249F5750409AF0F1F0882359
:100890004AF0EE0FFF1FBB1F661F771F881F915086
:1008A0005040A9F79E3F510580F00C94AE030C9484
:1008B000F9035F3FE4F3983ED4F386957795679507
:1008C000B795F795E7959F5FC1F7FE2B880F911DB0
:1008D0009695879597F90895EE0FFF1F881F8BBF98
:0E08E0000790F691E02D1BBE1994F894FFCFFF
:1008EE0080000001800100028002000380030004EA
:1008FE0080040005800500068006000780070008BA
:10090E007F08FF087F09FF097F0AFF0A7F0BFF0B95
:10091E007F0CFF0C7F0DFF0D7F0EFF0E7F0FFF0F65
:10092E007F0FFF0E7F0EFF0D7F0DFF0C7F0CFF0B59
:10093E007F0BFF0A7F0AFF097F09FF087F08000867
:10094E00800700078006000680050005800400046D
:10095E00800300038002000280010001800000007D
:10096E000008C8088F09520A0F0BC50B710C120D27
:10097E00A70D2E0EA60E0D0F630FA70FD80FF50F96
:10098E00FF0FF50FD80FA70F630F0D0FA60E2E0E2C
:10099E00A70D120D710CC50B0F0B520A8F09C8084B
:1009AE00000837077006AD05F0043A048E03ED0219
:1009BE005802D1015901F2009C00580027000A008C
:1009CE0000000A00270058009C00F2005901D101D6
:1009DE005802ED028E033A04F004AD057006370797
:00000001FF
