:020000020000FC
:0E020000CFEFCDBFCFE3CEBFFBD00BD1FDCFF4
:1004000011121418212224284142444881828488F0
:100410000D0C0B0A0F090603000805020E07040164
:1004200008951F932F933F934F935F93EF93FF9301
:10043000E0E0F4E020E010E150E11093B00610930A
:10044000B1061093B2061093B30610EF1093A006F6
:1004500010E12117B9F01093A40600003091A8060E
:100460004591341759F04591341741F045913417AF
:1004700029F04591341711F0110FEBCFEA95E50FF4
:10048000049101C00FEFFF91EF915F914F913F9168
:060490002F911F91089559
:00000001FF
