S01200004C6162365F50617274412E7372656396
S11300000C94FE000C940E010C940E010C940E0141
S11300100C940E010C940E010C940E010C940E0120
S11300200C940E010C940E010C940E010C940E0110
S11300300C940E010C940E010C940E010C940E0100
S11300400C940E010C940E010C940E010C940E01F0
S11300500C940E010C940E010C940E010C940E01E0
S11300600C940E010C940E010C940E010C940E01D0
S11300700C940E010C940E010C940E010C940E01C0
S11300800C940E010C940E010C940E010C940E01B0
S11300900C940E010C940E010C940E010C940E01A0
S11300A00C940E010C940E010C940E010C940E0190
S11300B00C940E010C940E010C940E010C940E0180
S11300C00C940E010C940E010C940E010C940E0170
S11300D00C940E010C940E010C940E010C940E0160
S11300E00C940E010C940E010C940E010C940E0150
S11300F00C940E010C940E010C940E010C940E0140
S11301000C940E010C940E010C940E010C940E012F
S11301100C940E010C940E010C940E010C940E011F
S11301200C940E010C940E010C940E010C940E010F
S11301300C940E010C940E010C940E010C940E01FF
S11301400C940E010C940E010C940E010C940E01EF
S11301500C940E010C940E010C940E010C940E01DF
S11301600C940E010C940E010C940E010C940E01CF
S11301700C940E010C940E010C940E010C940E01BF
S11301800C940E010C940E010C940E010C940E01AF
S11301900C940E010C940E010C940E010C940E019F
S11301A00C940E010C940E010C940E010C940E018F
S11301B00C940E010C940E010C940E010C940E017F
S11301C00C940E010C940E010C940E010C940E016F
S11301D00C940E010C940E010C940E010C940E015F
S11301E00C940E010C940E010C940E010C940E014F
S11301F00C940E010C940E010C940E0111241FBEDC
S1130200CFEFCDBFDFE3DEBF00E00CBF18BE19BEE9
S11302101ABE1BBE0E941B010C9438010C940000F2
S1130220E0E0FAE081E08083818313821482168205
S1130230178211860895E0E8F6E081E0808380E883
S113024082830E941001A0E8B6E0E0E0FAE027E330
S113025032E091E118968C911897882334F426A300
S113026037A320A731A79183F5CF81811182F2CFE3
S1070270F894FFCF2C
S9030000FC
