:020000020000FC
:02000000FFC03F
:0401A0000C94230197
:10020000DFE3D0933E00CFEFC0933D000FEF0093AC
:1002100081060093860603D010938406FDCF0F93CA
:1002200001E00093AA060093A4060093A20600939F
:10023000A90602E00093B00601E00093A200112796
:1002400078940F91089515D00F9300913F000F936C
:100250000091A80600FF13950FEF011709F001C0E8
:10026000112701E00093AC060F9100933F000F911E
:1002700018950F931F932F9300E010E029EC0217BD
:1002800011F00395FCCF121719F013950027F7CF43
:080290002F911F910F910895B9
:00000001FF
