:020000020000FC
:02000000CCC171
:1002000041647269616E2773206661766F726974EA
:1002100065203A0D0A0D0A312E09426F6F6B0D0AE7
:100220000D0A322E0950697A7A6120746F707069F4
:100230006E67730D0A0D0A332E09496365206372D8
:1002400065616D2F796F6775727420666C61766F6A
:10025000720D0A0D0A342E09466F6F640D0A0D0ADD
:10026000352E094163746F722F4163747265737325
:100270002F5265616C697479202253746172220D6A
:100280000A0D0A362E0952652D646973706C617906
:10029000206D656E750D0A0D0A4553433A20657849
:1002A00069740D0A0D0A000041647269616E27735A
:1002B000206661766F7269746520626F6F6B20696A
:1002C000732054686520486F626269740D0A0D0AD4
:1002D000000041647269616E2773206661766F72F7
:1002E0006974652070697A7A6120746F7070696EC4
:1002F00067206973205065707065726F6E690D0AB2
:100300000D0A000041647269616E27732066617690
:100310006F726974652069636520637265616D2F12
:10032000796F6775727420666C61766F722069737D
:1003300020486F742066756467652073756E64610C
:10034000650D0A0D0A0041647269616E27732066AB
:1003500061766F7269746520666F6F6420697320BF
:100360004D6F666F6E676F0D0A0D0A00416472690A
:10037000616E2773206661766F72697465206163B0
:10038000746F7220697320537465766520436172BF
:1003900072656C6C0D0A0D0A0000CFEFC0933D0032
:1003A000DFE3D0933E0012D002D01BE1FFCF0F93CA
:1003B00008E10093A40903E00093A50901E200937A
:1003C000A60901E90093A7090F9108950F9308E08A
:1003D000009361060093650604E0009362060AE05C
:1003E0000093C1070093C6070F9108951F931091C2
:1003F000A10915FFFCCF0093A0091F91089500915A
:10040000A10907FFFCCF0091A00908951F930F9346
:1004100010E00591011711F0E9DFFBCF0F911F915B
:1004200008950F931F9300E018EC011711F0039546
:10043000FCCF1F910F91089508951F9311E30117A9
:1004400081F01395011781F01395011781F0139531
:10045000011781F01395011781F01395011781F0B1
:1004600012C0E8EAF2E00FC0E2EDF2E00CC0E4E016
:10047000F3E009C0E6E4F3E006C0ECE6F3E003C015
:0A048000E0E0F2E000C01F910895D3
:00000001FF
