S01700004C6162355F6C63645F6B65797061642E737265635A
S11300000C940E010C942C010C942C010C942C01D6
S11300100C942C010C942C010C942C010C942C01A8
S11300200C942C010C942C010C942C010C942C0198
S11300300C942C010C942C010C942C010C942C0188
S11300400C942C010C942C010C942C010C942C0178
S11300500C942C010C942C010C942C010C942C0168
S11300600C942C010C942C010C942C010C942C0158
S11300700C942C010C942C010C942C010C942C0148
S11300800C942C010C942C010C942C010C942C0138
S11300900C942C010C942C010C942C010C942C0128
S11300A00C942C010C942C010C942C010C942C0118
S11300B00C942C010C942C010C942C010C942C0108
S11300C00C942C010C942C010C942C010C942C01F8
S11300D00C942C010C942C010C942C010C942C01E8
S11300E00C942C010C942C010C942C010C942C01D8
S11300F00C942C010C942C010C942C010C942C01C8
S11301000C942C010C942C010C942C010C942C01B7
S11301100C942C010C942C010C942C010C942C01A7
S11301200C942C010C942C010C942C010C942C0197
S11301300C942C010C942C010C942C010C942C0187
S11301400C942C010C942C010C942C010C942C0177
S11301500C942C010C942C010C942C010C942C0167
S11301600C942C010C942C010C942C010C942C0157
S11301700C942C010C942C010C942C010C942C0147
S11301800C942C010C942C010C942C010C942C0137
S11301900C942C010C942C010C942C010C942C0127
S11301A00C942C010C942C010C942C010C942C0117
S11301B00C942C010C942C010C942C010C942C0107
S11301C00C942C010C942C010C942C010C942C01F7
S11301D00C942C010C942C010C942C010C942C01E7
S11301E00C942C010C942C010C942C010C942C01D7
S11301F00C942C010C942C010C942C019403940366
S1130200970397039F039F03A203A2030C949703EE
S11302100C949F030C9494030C94A20311241FBE0A
S1130220CFEFCDBFDFE3DEBF00E00CBF18BE19BEC9
S11302301ABE1BBE10E2A0E0B0E2EEE8FBE000E074
S11302400BBF02C007900D92AC34B107D9F71BBEA7
S11302500E947A030C94C5050C94000080EF8093EF
S1130260A0068FE08093A20680E18093B00680937D
S1130270B1068093B2068093B30608950F931F933B
S1130280CF93DF9324E030E080E261E070E0A4EA01
S1130290B6E0E8EAF6E0C4E4D3E412E401E4AB0136
S11302A0022E02C0440F551F0A94E2F74C9300003B
S11302B000009081913101F1923101F1943101F109
S11302C0983101F1913201F1923201F1943201F14C
S11302D0983201F1913401F1923401F1943401F135
S11302E0983401F1913801F1923801F1943801F117
S11302F09838F9F481E31DC08C2F1BC08D2F19C0D1
S1130300812F17C0802F15C083E213C089E311C069
S113031086E30FC083E30DC080E30BC088E309C00C
S113032085E307C082E305C08AE203C087E301C016
S113033084E32F5F3F4F2830310509F0B0CFDF91C0
S1130340CF911F910F910895E0EEF6E087E381834A
S113035093E395839FEF9093210790930107E0E443
S1130360F4E091E09083138A90E4928B99E1908B6E
S1130370878B168A81E2848B08950000000040E098
S113038050EA67E370E00BB66BBFFA0180810BBEE5
S11303908823CCF30895813069F40E94BD012FE0D5
S11303A080E090EAA7E3B0E00BB6ABBFFC0120838A
S11303B00BBE08950E94BD012CE080E090EAA7E303
S11303C0B0E00BB6ABBFFC0120830BBE0895CF9306
S11303D0C82F0E94BD0141E050EA67E370E00BB60C
S11303E06BBFFA01C0830BBECF910895CF92DF9209
S11303F0EF92FF92CF93DF93EC0188818823A1F0E1
S11304000F2ECC24C394F0EADF2EF7E3EF2EF12C69
S1130410F02D0E94BD0189910BB6EBBEF6018083DD
S11304200BBE88818111F5CFDF91CF91FF90EF90C2
S1130430DF90CF900895CF93DF9300D01F92CDB774
S1130440DEB719821A821B821C8289819A81AB8150
S1130450BC81823A9740A105B105A0F489819A81B3
S1130460AB81BC810196A11DB11D89839A83AB83A5
S1130470BC8389819A81AB81BC81823A9740A10572
S1130480B10560F32496CDBFDEBFDF91CF9108950F
S11304900E94BD0121E080E090EAA7E3B0E00BB642
S11304A0ABBFFC0120830BBE0895CF93882311F0CA
S11304B0C0E401C0C0E06F70C62B0E94BD01C068DB
S11304C080E090EAA7E3B0E00BB6ABBFFC01C083C9
S11304D00BBECF9108950E941B0228E380E090EAAE
S11304E0A7E3B0E00BB6ABBFFC0120830BBE0E94B8
S11304F0BD0128E380E090EAA7E3B0E00BB6ABBF10
S1130500FC0120830BBE0E94BD012CE080E090EA38
S1130510A7E3B0E00BB6ABBFFC0120830BBE0E9487
S113052048020E94BD0126E080E090EAA7E3B0E023
S11305300BB6ABBFFC0120830BBE60E080E00E94E1
S1130540550208950E94BD0122E080E090EAA7E3ED
S1130550B0E00BB6ABBFFC0120830BBE0E94BD0113
S113056060E080E00E94550208950E9448020E94C3
S1130570A20280E090E20E94F60108950E944802DF
S11305800E94A2028FE090E20E94F60160E081E006
S11305900E94550280E290E20E94F60108950E94B2
S11305A048020E94A2028DE290E20E94F60160E0FD
S11305B081E00E9455028DE390E20E94F6010895C5
S11305C0CF93DF9385E080934002E0E4F2E083A1DF
S11305D080FFFDCFC0E4D2E06CA17DA180E090E07B
S11305E00E94C10420E030E040EA50E40E944F053C
S11305F03BA121E023272BA320E030EE4FEF54E46E
S11306000E941904DF91CF9108958F929F92AF9227
S1130610BF92CF92DF92EF92FF924B015C010E9456
S11306208B046B017C0180E38C0D0E94E7018EE258
S11306300E94E701DD24B601DD0C880B990B0E94B2
S1130640C3049B01AC01C501B4010E94AC0320E0CA
S113065030E040E251E40E944F054B015C010E94EE
S11306608B046B017C0180E38C0D0E94E701DD2487
S1130670B601DD0C880B990B0E94C3049B01AC01ED
S1130680C501B4010E94AC0320E030E040E251E433
S11306900E944F050E948B0480E3860F0E94E701AD
S11306A086E50E94E701FF90EF90DF90CF90BF9026
S11306B0AF909F908F9008950E9448020E94A202DA
S11306C00E94E0020E940503089581E880932206B7
S11306D0E0E4F2E082E0808380E1818380E382834E
S11306E084E0848381E0808386E080A38FE381A318
S11306F012A208950E94A4010E946B020E94650345
S11307000E942E0180E202C00E943E018032E1F389
S113071090E0FC01F097E830F105B8F48827E25046
S1130720FF4F8F4F0C94BC050E94B50210C00E946D
S113073048020E94A20281E00E94CB0108C00E94EC
S1130740BE0205C00E945C0302C00E94CF0280E08A
S11307500E94CB0180E2DACF5058BB27AA270E941F
S1130760C4030C9415050E94070538F00E940E0579
S113077020F039F49F3F19F426F40C9404050EF488
S1130780E095E7FB0C94FE04E92F0E94260558F33C
S1130790BA17620773078407950720F079F4A6F562
S11307A00C9448050EF4E0950B2EBA2FA02D0B01E6
S11307B0B90190010C01CA01A0011124FF27591BA2
S11307C099F0593F50F4503E68F11A16F040A22FA8
S11307D0232F342F4427585FF3CF46953795279519
S11307E0A795F0405395C9F77EF41F16BA0B620B18
S11307F0730B840BBAF09150A1F0FF0FBB1F661F5F
S1130800771F881FC2F70EC0BA0F621F731F841FA1
S113081048F4879577956795B795F7959E3F08F0C7
S1130820B0CF9395880F08F09927EE0F9795879589
S113083008950E942D040C9415050E940E0558F08D
S11308400E94070540F029F45F3F29F00C94FE0450
S113085051110C9449050C9404050E94260568F373
S11308609923B1F3552391F3951B550BBB27AA2765
S113087062177307840738F09F5F5F4F220F331F9F
S1130880441FAA1FA9F335D00E2E3AF0E0E832D067
S113089091505040E695001CCAF72BD0FE2F29D06A
S11308A0660F771F881FBB1F261737074807AB073C
S11308B0B0E809F0BB0B802DBF01FF2793585F4FB1
S11308C03AF09E3F510578F00C94FE040C944905CF
S11308D05F3FE4F3983ED4F3869577956795B79593
S11308E0F7959F5FC9F7880F911D9695879597F99E
S11308F00895E1E0660F771F881FBB1F6217730717
S11309008407BA0720F0621B730B840BBA0BEE1F2B
S113091088F7E09508950E9492046894B1110C94AC
S1130920490508950E942E0588F09F5798F0B92F25
S11309309927B751B0F0E1F0660F771F881F991F10
S11309401AF0BA95C9F714C0B13091F00E94480565
S1130950B1E008950C944805672F782F8827B85F75
S113096039F0B93FCCF3869577956795B395D9F768
S11309703EF490958095709561957F4F8F4F9F4F72
S11309800895E89409C097FB3EF49095809570957E
S113099061957F4F8F4F9F4F9923A9F0F92F96E9C7
S11309A0BB279395F695879577956795B795F1113C
S11309B0F8CFFAF4BB0F11F460FF1BC06F5F7F4FD9
S11309C08F4F9F4F16C0882311F096E911C07723EB
S11309D021F09EE8872F762F05C0662371F096E8F4
S11309E0862F70E060E02AF09A95660F771F881FC3
S11309F0DAF7880F9695879597F9089597F99F6781
S1130A0080E870E060E008959FEF80EC0895002492
S1130A100A941616170618060906089500240A945F
S1130A2012161306140605060895092E0394000CE5
S1130A3011F4882352F0BB0F40F4BF2B11F460FF74
S1130A4004C06F5F7F4F8F4F9F4F089557FD90589D
S1130A50440F551F59F05F3F71F04795880F97FB7E
S1130A60991F61F09F3F79F0879508951216130638
S1130A701406551FF2CF4695F1DF08C01616170667
S1130A801806991FF1CF869571056105089408959C
S1130A90E894BB2766277727CB0197F908950E942E
S1130AA062050C9415050E94070538F00E940E0596
S1130AB020F0952311F00C94FE040C9404051124E9
S1130AC00C9449050E94260570F3959FC1F3950F78
S1130AD050E0551F629FF001729FBB27F00DB11DBE
S1130AE0639FAA27F00DB11DAA1F649F6627B00D4E
S1130AF0A11D661F829F2227B00DA11D621F739F37
S1130B00B00DA11D621F839FA00D611D221F749F44
S1130B103327A00D611D231F849F600D211D822F8B
S1130B20762F6A2F11249F5750409AF0F1F08823B2
S1130B304AF0EE0FFF1FBB1F661F771F881F9150DF
S1130B405040A9F79E3F510580F00C94FE040C948C
S1130B5049055F3FE4F3983ED4F38695779567950E
S1130B60B795F795E7959F5FC1F7FE2B880F911D09
S1130B709695879597F90895EE0FFF1F881F8BBFF1
S1110B800790F691E02D1BBE1994F894FFCF58
S1130B8E41647269616E20416C766172657A004DC2
S1130B9E61792074686520536368776172747A0092
S1130BAE6265207769746820796F75210020497415
S1130BBE27732064616E6765726F757300202074ED
S10F0BCE6F20676F20616C6F6E65210062
S9030000FC
