S01200004C6162365F50617274422E7372656395
S11300000C9442010C9468010C9468010C946801EE
S11300100C9468010C9468010C9468010C946801B8
S11300200C9468010C9468010C9468010C946801A8
S11300300C9468010C9468010C9468010C94680198
S11300400C9468010C9468010C9468010C94680188
S11300500C9468010C9468010C9468010C94680178
S11300600C9468010C9468010C9468010C94680168
S11300700C9468010C9468010C9468010C94680158
S11300800C9468010C9468010C9468010C94680148
S11300900C9468010C9468010C9468010C94680138
S11300A00C9468010C9468010C9468010C94680128
S11300B00C9468010C9468010C9468010C94680118
S11300C00C9468010C9468010C9468010C94680108
S11300D00C9468010C9468010C9468010C946801F8
S11300E00C9468010C9468010C9468010C946801E8
S11300F00C9468010C9468010C9468010C946801D8
S11301000C9468010C9468010C9468010C946801C7
S11301100C9468010C9468010C9468010C946801B7
S11301200C9468010C9468010C9468010C946801A7
S11301300C9468010C9403060C9468010C946801F7
S11301400C9468010C9468010C9468010C94680187
S11301500C9468010C9468010C9468010C94680177
S11301600C9468010C9468010C9468010C94680167
S11301700C9468010C9468010C9468010C94680157
S11301800C9468010C9468010C9468010C94680147
S11301900C9468010C9468010C9468010C94680137
S11301A00C9468010C9468010C9468010C94680127
S11301B00C9468010C9468010C9468010C94680117
S11301C00C9468010C9468010C9468010C94680107
S11301D00C9468010C9468010C9468010C946801F7
S11301E00C9468010C9468010C9468010C946801E7
S11301F00C9468010C9468010C946801FD05750465
S11302007504750475047504750400067504750495
S1130210750475047504760583049E04B904D40436
S1130220EF040A05250540055B057504750475048E
S113023075047504750475049105AC05C705E205DC
S11302400C945B050C949E040C9476050C94750434
S11302500C94E2050C9483040C94B9040C940006E9
S11302600C94FD050C9440050C94D4040C94910555
S11302700C9425050C940A050C94EF040C94C70502
S11302800C94AC0511241FBECFEFCDBFDFE3DEBF5E
S113029000E00CBF18BE19BE1ABE1BBE12E2A0E0DD
S11302A0B0E2E6E7F0E100E00BBF02C007900D9278
S11302B0AC34B107D9F71BBE22E2ACE4B2E201C010
S11302C01D92AE34B207E1F70E946A040C94390817
S11302D00C940000E0E0FAE081E0808381831382E3
S11302E014821682178211868093A200E0E0F9E05E
S11302F095E0908311821382148286831782789406
S113030008958F929F92AF92BF92CF92DF92EF9215
S1130310FF924B015C0169017A0120E030E0A90100
S1130320C701B6010E94A8068823E9F1A50194013A
S1130330C501B4010E943C069B01AC0160E074E27B
S113034084EF99E40E94AD0620E030E040E85FE3EA
S11303500E943B060E941F074B015C0120E034E22F
S113036044EF56E4C701B6010E94C30720E030EF12
S11303704FE555E40E943B060E941F07A0E0BAE047
S113038096968D929C92979798968D929C92999717
S1130390E0E0F9E066A377A381E111968C9381856F
S11303A08860818704C0E0E0FAE081811182FF90D7
S11303B0EF90DF90CF90BF90AF909F908F90089573
S11303C080EF8093A0068FE08093A20680E1809363
S11303D0B0068093B1068093B2068093B306089565
S11303E00F931F93CF93DF9324E030E080E261E02A
S11303F070E0A4EAB6E0E8EAF6E0C4E4D3E412E488
S113040001E4AB01022E02C0440F551F0A94E2F727
S11304104C93000000009081913101F1923101F17F
S1130420943101F1983101F1913201F1923201F1EB
S1130430943201F1983201F1913401F1923401F1D5
S1130440943401F1983401F1913801F1923801F1B9
S1130450943801F19838F9F481E31DC08C2F1BC046
S11304608D2F19C0812F17C0802F15C083E213C0B0
S113047089E311C086E30FC083E30DC080E30BC0A2
S113048088E309C085E307C082E305C08AE203C0AC
S113049087E301C084E32F5F3F4F2830310509F023
S11304A0B0CFDF91CF911F910F910895E0EEF6E068
S11304B087E3818393E395839FEF90932107909340
S11304C00107E0E4F4E091E09083138A90E4928BD6
S11304D099E1908B878B168A81E2848B08950000C2
S11304E0000040E050EA67E370E00BB66BBFFA012E
S11304F080810BBE8823CCF30895CF92DF92EF92D4
S1130500FF92CF93DF93EC0188818823A1F00F2E13
S1130510CC24C394F0EADF2EF7E3EF2EF12CF02D78
S11305200E946F0289910BB6EBBEF60180830BBE6D
S113053088818111F5CFDF91CF91FF90EF90DF900B
S1130540CF900895CF93DF9300D01F92CDB7DEB73D
S113055019821A821B821C8289819A81AB81BC8197
S1130560823A9740A105B105A0F489819A81AB81B3
S1130570BC810196A11DB11D89839A83AB83BC8381
S113058089819A81AB81BC81823A9740A105B105EA
S113059060F32496CDBFDEBFDF91CF9108950E9412
S11305A06F0221E080E090EAA7E3B0E00BB6ABBFB6
S11305B0FC0120830BBE0895CF93882311F0C0E47F
S11305C001C0C0E06F70C62B0E946F02C06880E05B
S11305D090EAA7E3B0E00BB6ABBFFC01C0830BBE4F
S11305E0CF9108950E94A20228E380E090EAA7E355
S11305F0B0E00BB6ABBFFC0120830BBE0E946F02C0
S113060028E380E090EAA7E3B0E00BB6ABBFFC01BF
S113061020830BBE0E946F022CE080E090EAA7E3E7
S1130620B0E00BB6ABBFFC0120830BBE0E94CF022F
S11306300E946F0226E080E090EAA7E3B0E00BB6E8
S1130640ABBFFC0120830BBE60E080E00E94DC02B3
S113065008950E946F0222E080E090EAA7E3B0E0F0
S11306600BB6ABBFFC0120830BBE0E946F0260E09F
S113067080E00E94DC020895CF92DF92FF920F93F4
S11306801F93CF93DF93CDB7DEB7C054D140CDBF16
S1130690DEBFF8940E94CF020E9429038CE591E208
S11306A00E947D0260E081E00E94DC0288E691E223
S11306B00E947D0280EAE0E0F0E2DE011196019002
S11306C00D928A95E1F780EAE0EAF0E2DE01AF55A7
S11306D0BF4F01900D928A95E1F710924C2210922F
S11306E04D2280914C2290914D2288970CF061C04C
S11306F000E019E0FF24F394F801F486E0914C2221
S1130700F0914D22EE0FFF1FEE0FFF1F81E090E0EE
S11307108C0F9D1FE80FF91F20E030E0A9016081D4
S11307207181828193810E94A806882371F1E091EE
S11307304C22F0914D22C0904C22D0904D22EE0FCD
S1130740FF1FEE0FFF1F81EA90E08C0F9D1FE80F43
S1130750F91F2BEA3AEA4AE25FE360817181828100
S113076093810E94C3079B01AC01CC0CDD1CCC0C13
S1130770DD1CE1E0F0E0EC0FFD1FEC0DFD1D6081E0
S11307807181828193810E948101F801848580FFB7
S1130790FCCF80914C2290914D22019680934C2263
S11307A090934D2280914C2290914D2288970CF485
S11307B0A3CF7894C05CDE4FCDBFDEBFDF91CF9175
S11307C01F910F91FF90DF90CF900895FF920F93A8
S11307D01F93CF93DF93CDB7DEB76C97CDBFDEBF4A
S11307E0F8940E94CF020E94290383E791E20E94B9
S11307F07D0260E081E00E94DC028BE791E20E94CE
S11308007D028CE1E0E4F1E2DE01119601900D92AB
S11308108A95E1F710924C2210924D2280914C223D
S113082090914D2207970CF04BC000E019E0FF2493
S1130830F394F801F486E0914C22F0914D22EE0FEE
S1130840FF1FEE0FFF1F81E090E08C0F9D1FE80F4C
S1130850F91F20E030E0A9016081718182819381D8
S11308600E94A8068823C1F0E0914C22F0914D2209
S1130870EE0FFF1FEE0FFF1F81E090E08C0F9D1F16
S1130880E80FF91F608171818281938127E53BE53F
S113089041E15FE30E948101F801848580FFFCCF80
S11308A080914C2290914D22019680934C229093FA
S11308B04D2280914C2290914D2207970CF4B9CF90
S11308C078946C96CDBFDEBFDF91CF911F910F91CD
S11308D0FF9008950E9456020E94F2020E94E001D5
S11308E00E946A0181E0809380060E94F00190E0FA
S11308F0FC01B397E232F105C0F78827E250FF4FBD
S11309008F4F0C9430080E94CF020E94290384E880
S113091091E20E947D0260E081E00E94DC0287E8AF
S113092091E20E947D0227E53BE541E15FE360E05F
S113093070ED82E894E40E948101D7CF0E94CF0237
S11309400E94290381E991E20E947D0260E081E036
S11309500E94DC0285E991E20E947D0227E53BE5E5
S113096041E15FE36CE577E98AE894E40E94810160
S1130970BCCF0E94CF020E94290380EA91E20E9428
S11309807D0260E081E00E94DC0283EA91E20E9441
S11309907D0227E53BE541E15FE36FE175EB82E929
S11309A094E40E948101A1CF0E94CF020E942903F6
S11309B08EEA91E20E947D0260E081E00E94DC0206
S11309C082EB91E20E947D0227E53BE541E15FE392
S11309D062E570E98BE994E40E94810186CF0E946C
S11309E0CF020E9429038DEB91E20E947D0260E018
S11309F081E00E94DC0280EC91E20E947D0227E506
S1130A003BE541E15FE362E570ED84EA94E40E9432
S1130A1081016BCF0E94CF020E9429038BEC91E2EB
S1130A200E947D0260E081E00E94DC028EEC91E293
S1130A300E947D0227E53BE541E15FE36FE17DE94B
S1130A408EEA94E40E94810150CF0E94CF020E945A
S1130A50290389ED91E20E947D0260E081E00E9419
S1130A60DC028DED91E20E947D0227E53BE541E148
S1130A705FE36CE57FEF88EB94E40E94810135CF5E
S1130A800E94CF020E94290388EE91E20E947D0217
S1130A9060E081E00E94DC028BEE91E20E947D0224
S1130AA027E53BE541E15FE36CE57FEF83EC94E40C
S1130AB00E9481011ACF0E94CF020E94290386EF6F
S1130AC091E20E947D0260E081E00E94DC028AEFF4
S1130AD091E20E947D0227E53BE541E15FE36AE0A4
S1130AE077EA8FEC94E40E948101FFCE0E94CF024A
S1130AF00E94290385E092E20E947D0260E081E089
S1130B000E94DC0288E092E20E947D0227E53BE538
S1130B1041E15FE360E070E08CED94E40E948101C8
S1130B20E4CE0E94CF020E94290382E192E20E9455
S1130B307D0260E081E00E94DC0286E192E20E9494
S1130B407D0227E53BE541E15FE36FE175E189EE75
S1130B5094E40E948101C9CE0E94CF020E9429031D
S1130B6081E292E20E947D0260E081E00E94DC0268
S1130B7084E292E20E947D0227E53BE541E15FE3E6
S1130B8066EF70EF86EF94E40E948101AECE0E947E
S1130B90CF020E9429038FE292E20E947D0260E06C
S1130BA081E00E94DC0282E392E20E947D0227E55A
S1130BB03BE541E15FE360E070ED82E095E40E9493
S1130BC0810193CE0E94CF020E9429038CE392E21A
S1130BD00E947D0260E081E00E94DC0280E492E2F7
S1130BE00E947D0227E53BE541E15FE36CE577E99F
S1130BF08AE095E40E94810178CE0E943C0375CE80
S1130C000E94E60372CE1F920F920FB60F92112428
S1130C1008B60F9218BE09B60F9219BE0BB60F9202
S1130C201BBE2F933F934F935F936F937F938F9349
S1130C309F93AF93BF93EF93FF9320E030E0A9011C
S1130C40CA01B9010E948101FF91EF91BF91AF9157
S1130C509F918F917F916F915F914F913F912F91D0
S1130C600F900BBE0F9009BE0F9008BE0F900FBEE1
S1130C700F901F9018955058BB27AA270E9453061F
S1130C800C9489070E947B0738F00E94820720F0A9
S1130C9039F49F3F19F426F40C9478070EF4E09588
S1130CA0E7FB0C947207E92F0E949A0758F3BA17CE
S1130CB0620773078407950720F079F4A6F50C946E
S1130CC0BC070EF4E0950B2EBA2FA02D0B01B90131
S1130CD090010C01CA01A0011124FF27591B99F0AE
S1130CE0593F50F4503E68F11A16F040A22F232FBA
S1130CF0342F4427585FF3CF469537952795A7950A
S1130D00F0405395C9F77EF41F16BA0B620B730BB0
S1130D10840BBAF09150A1F0FF0FBB1F661F771F21
S1130D20881FC2F70EC0BA0F621F731F841F48F4D6
S1130D30879577956795B795F7959E3F08F0B0CF5F
S1130D409395880F08F09927EE0F97958795089546
S1130D500E944E0708F481E008950E94C1060C9495
S1130D6089070E94820758F00E947B0740F029F40B
S1130D705F3F29F00C94720751110C94BD070C9439
S1130D8078070E949A0768F39923B1F3552391F3E6
S1130D90951B550BBB27AA2762177307840738F0E6
S1130DA09F5F5F4F220F331F441FAA1FA9F335D043
S1130DB00E2E3AF0E0E832D091505040E695001CF7
S1130DC0CAF72BD0FE2F29D0660F771F881FBB1FB1
S1130DD0261737074807AB07B0E809F0BB0B802D8F
S1130DE0BF01FF2793585F4F3AF09E3F510578F0BB
S1130DF00C9472070C94BD075F3FE4F3983ED4F360
S1130E00869577956795B795F7959F5FC9F7880F8E
S1130E10911D9695879597F90895E1E0660F771FE0
S1130E20881FBB1F621773078407BA0720F0621B71
S1130E30730B840BBA0BEE1F88F7E09508950E949C
S1130E40A20788F09F5798F0B92F9927B751B0F0AF
S1130E50E1F0660F771F881F991F1AF0BA95C9F73A
S1130E6014C0B13091F00E94BC07B1E008950C9415
S1130E70BC07672F782F8827B85F39F0B93FCCF3C8
S1130E80869577956795B395D9F73EF490958095B7
S1130E90709561957F4F8F4F9F4F0895990F00086C
S1130EA0550FAA0BE0E8FEEF16161706E807F90738
S1130EB0C0F012161306E407F50798F0621B730BD3
S1130EC0840B950B39F40A2661F0232B242B252B54
S1130ED021F408950A2609F4A140A6958FEF811DF7
S1130EE0811D089597F99F6780E870E060E0089598
S1130EF09FEF80EC089500240A941616170618062E
S1130F000906089500240A94121613061406050609
S1130F100895092E0394000C11F4882352F0BB0F9A
S1130F2040F4BF2B11F460FF04C06F5F7F4F8F4FFD
S1130F309F4F089557FD9058440F551F59F05F3F38
S1130F4071F04795880F97FB991F61F09F3F79F0E7
S1130F5087950895121613061406551FF2CF469569
S1130F60F1DF08C0161617061806991FF1CF8695EB
S1130F707105610508940895E894BB2766277727CF
S1130F80CB0197F908950E94D6070C9489070E9413
S1130F907B0738F00E94820720F0952311F00C940F
S1130FA072070C94780711240C94BD070E949A07C9
S1130FB070F3959FC1F3950F50E0551F629FF001A8
S1130FC0729FBB27F00DB11D639FAA27F00DB11DC1
S1130FD0AA1F649F6627B00DA11D661F829F22274A
S1130FE0B00DA11D621F739FB00DA11D621F839FD1
S1130FF0A00D611D221F749F3327A00D611D231FA7
S1131000849F600D211D822F762F6A2F11249F57F4
S113101050409AF0F1F088234AF0EE0FFF1FBB1FF7
S1131020661F771F881F91505040A9F79E3F5105B6
S113103080F00C9472070C94BD075F3FE4F3983E74
S1131040D4F3869577956795B795F795E7959F5F60
S1131050C1F7FE2B880F911D9695879597F90895F2
S1131060EE0FFF1F881F8BBF0790F691E02D1BBE6C
S10910701994F894FFCF6F
S113107600E0A44400005C440000774400A08A44D5
S113108600E0924400E0A4440000000000E0A44410
S113109600A0AE440000C4440000DC44000000008C
S11310A60000DC44000000000000DC440000C444EE
S11310B600A0AE440000C44400A0AE4400E0A44432
S11310C600E0A44400E092440000000000E0A444D0
S11310D600A0AE440000000000E0A44400E09244F6
S11310E600E0824400E0924400E0A44400E092441C
S11310F600E082440000774400E0824400E0924429
S11311060000000000A0AE440000000000E0A4447B
S11311160000803F000000400000003F0000003F48
S11311260000003F0000C03F0000003F0000003FF9
S11311360000003F0000003F0000C03F0000003FE9
S11311460000803E0000803E0000003F0000003F9B
S11311560000003F0000403F0000003F0000C03F89
S11311660000803F0000003F0000003F0000003FF9
S11311760000803F0000003F0000003F0000003FE9
S11311860000803F0000003F0000803F0000003F59
S11311960000003F0000C03F0000003F0000003F89
S11311A60000803E0000003F0000803E0000C03F7B
S11311B600E0824400E0A4440000C44400D0024598
S11311C60000C44400E0A44400E082445A656C6410
S11311D661205468656D65004B6F6A69204B6F6EBC
S11311E6646F0043204D616A6F72004172706567D7
S11311F667696F00433600313034362E3520487A1D
S11312060043233600313130382E373320487A00F4
S1131216443600313137332E363620487A0044239B
S11312263600313234342E353120487A00453600C2
S1131236313331382E353120487A00463600313381
S113124639362E393120487A004623360031343770
S1131256392E393820487A00473600313536372E4C
S1131266393820487A0047233600313636312E3253
S11312763220487A00413600313736302E30204845
S11312867A0041233600313836342E363620487AF1
S113129600423600313937352E353320487A00433B
S11312A63700323039332E3020487A004462370012
S10F12B6323231372E343620487A0000E2
S9030000FC
