:020000020000FC
:10020000CFEFC0933D00DFE3D0933E000FEF0093AC
:100210008106F6D06FEF05D10093840673E00717CF
:1002200009F0F9CF38D100938406FBD078E00717A6
:1002300021F07FEF0717B9F3EECF80E820E0F1D08F
:1002400078E0071741F780938406869524D18217BA
:0802500009F0F5CF80E8F3CFBF
:1004000011121418212224284142444881828488F0
:100410000D0C0B0A0F090603000805020E07040164
:1004200008951F932F933F934F935F93EF93FF9301
:10043000E0E0F4E020E010E150E11093B00610930A
:10044000B1061093B2061093B30610EF1093A006F6
:1004500010E12117B9F01093A40600003091A8060E
:100460004591341759F04591341741F045913417AF
:1004700029F04591341711F0110FEBCFEA95E50FF4
:10048000049101C00FEFFF91EF915F914F913F9168
:100490002F911F9108953F932F931F933FEF20E0DB
:1004A00010E0231711F02395FCCF611739F0139555
:1004B0001A951A95139513952227F3CF11271395A3
:0C04C0001317E9F71F912F913F91089549
:00000001FF
