:100000000C94FE000C941C010C941C010C941C011B
:100010000C941C010C941C010C941C010C941C01EC
:100020000C941C010C941C010C941C010C941C01DC
:100030000C941C010C941C010C941C010C941C01CC
:100040000C941C010C941C010C941C010C941C01BC
:100050000C941C010C941C010C941C010C941C01AC
:100060000C941C010C941C010C941C010C941C019C
:100070000C941C010C941C010C941C010C941C018C
:100080000C941C010C941C010C941C010C941C017C
:100090000C941C010C941C010C941C010C941C016C
:1000A0000C941C010C941C010C941C010C941C015C
:1000B0000C941C010C941C010C941C010C941C014C
:1000C0000C941C010C941C010C941C010C941C013C
:1000D0000C941C010C941C010C941C010C941C012C
:1000E0000C941C010C941C010C941C010C941C011C
:1000F0000C941C010C941C010C941C010C941C010C
:100100000C941C010C941C010C941C010C941C01FB
:100110000C941C010C941C010C941C010C941C01EB
:100120000C941C010C941C010C941C010C941C01DB
:100130000C941C010C941C010C941C010C941C01CB
:100140000C941C010C941C010C941C010C941C01BB
:100150000C941C010C941C010C941C010C941C01AB
:100160000C941C010C941C010C941C010C941C019B
:100170000C941C010C941C010C941C010C941C018B
:100180000C941C010C941C010C941C010C941C017B
:100190000C941C010C941C010C941C010C941C016B
:1001A0000C941C010C941C010C941C010C941C015B
:1001B0000C941C010C941C010C941C010C941C014B
:1001C0000C941C010C941C010C941C010C941C013B
:1001D0000C941C010C941C010C941C010C941C012B
:1001E0000C941C010C941C010C941C010C941C011B
:1001F0000C941C010C941C010C941C0111241FBEB6
:10020000CFEFCDBFDFE3DEBF00E00CBF18BE19BEED
:100210001ABE1BBE10E2A0E0B0E2E6E3F4E000E0AC
:100220000BBF02C007900D92A031B107D9F71BBEDA
:100230000E940A020C9419020C940000E0EEF6E011
:1002400087E3818393E395839FEF909321079093B6
:100250000107E0E4F4E091E09083138A90E4928B4C
:1002600099E1908B878B168A81E2848B0895000038
:10027000000040E050EA67E370E00BB66BBFFA01A4
:1002800080810BBE8823CCF30895CF9380E090EA61
:10029000A7E3B0E00BB6ABBFFC01C0810BBE0E9470
:1002A000370181E08C2740E050EA67E370E00BB64D
:1002B0006BBFFA0180830BBECF910895CF92DF927E
:1002C000EF92FF92CF93DF93EC0188818823A1F016
:1002D0000F2ECC24C394F0EADF2EF7E3EF2EF12C9F
:1002E000F02D0E94370189910BB6EBBEF601808399
:1002F0000BBE88818111F5CFDF91CF91FF90EF90F8
:10030000DF90CF900895CF93DF9300D01F92CDB7A9
:10031000DEB719821A821B821C8289819A81AB8185
:10032000BC81823A9740A105B105A0F489819A81E8
:10033000AB81BC810196A11DB11D89839A83AB83DA
:10034000BC8389819A81AB81BC81823A9740A105A7
:10035000B10560F32496CDBFDEBFDF91CF91089544
:100360000E94370121E080E090EAA7E3B0E00BB6FD
:10037000ABBFFC0120830BBE0895CF93882311F0FF
:10038000C0E401C0C0E06F70C62B0E943701C06896
:1003900080E090EAA7E3B0E00BB6ABBFFC01C083FE
:1003A0000BBECF9108950E94830128E380E090EA7C
:1003B000A7E3B0E00BB6ABBFFC0120830BBE0E94ED
:1003C000370128E380E090EAA7E3B0E00BB6ABBFCB
:1003D000FC0120830BBE0E9437012CE080E090EAF4
:1003E000A7E3B0E00BB6ABBFFC0120830BBE0E94BD
:1003F000B0010E94370126E080E090EAA7E3B0E078
:100400000BB6ABBFFC0120830BBE60E080E00E9416
:10041000BD0108950E941E010E94D3010E94450162
:1004200080E090E20E945E0187E090E20E945E011F
:06043000FFCFF894FFCF9E
:1004360041647269616E0020416C766172657A0072
:00000001FF
