S01200004C6162375F50617274422E7372656394
S11300000C94FE000C9424010C9424010C942401FF
S11300100C9424010C9424010C9424010C942401C8
S11300200C9424010C9424010C9424010C942401B8
S11300300C9424010C9424010C9424010C942401A8
S11300400C9424010C9424010C9424010C94240198
S11300500C9424010C9424010C9424010C94240188
S11300600C9424010C9424010C9424010C94240178
S11300700C9424010C9424010C9424010C94240168
S11300800C9424010C9424010C9424010C94240158
S11300900C9424010C9424010C9424010C94240148
S11300A00C9424010C9424010C9424010C94240138
S11300B00C9424010C9424010C9424010C946401E8
S11300C00C9424010C9424010C9424010C94240118
S11300D00C9424010C9424010C9424010C94240108
S11300E00C9424010C9424010C9424010C942401F8
S11300F00C9424010C9424010C9424010C942401E8
S11301000C9424010C9424010C9424010C942401D7
S11301100C9424010C9424010C9424010C942401C7
S11301200C9424010C9424010C9424010C942401B7
S11301300C9424010C9424010C9424010C942401A7
S11301400C9424010C9424010C9424010C94240197
S11301500C9424010C9424010C9424010C94240187
S11301600C9424010C9424010C9424010C94240177
S11301700C9424010C9424010C9424010C94240167
S11301800C9424010C9424010C9424010C94240157
S11301900C9424010C9424010C9424010C94240147
S11301A00C9424010C9424010C9424010C94240137
S11301B00C9424010C9424010C9424010C94240127
S11301C00C9424010C9424010C9424010C94240117
S11301D00C9424010C9424010C9424010C94240107
S11301E00C9424010C9424010C9424010C942401F7
S11301F00C9424010C9424010C94240111241FBE9A
S1130200CFEFCDBFDFE3DEBF00E00CBF18BE19BEE9
S11302101ABE1BBE10E2A0E0B0E2E6E1F6E000E0A8
S11302200BBF02C007900D92A038B107D9F71BBECF
S113023020E2A0E8B0E201C01D92A238B207E1F7C3
S11302400E945B010C9409030C9400001F93CF934C
S1130250DF93C0E0DAE022E0288319821A821B824D
S11302601C8211E01E831F8220E030E040E852E44B
S11302700E949C029B01AC0160E074E284E799E473
S11302800E94AA010E941C026EA37FA31093A200E5
S11302907894DF91CF911F91089581E08093220695
S11302A084E080932106E0E2F3E088E18283118216
S11302B085E0808308950E944D0160E070E088EC41
S11302C092E40E942601FFCF1F920F920FB60F9265
S11302D0112408B60F9218BE0BB60F921BBE2F93B3
S11302E03F938F939F93EF93FF93E0E2F3E0858135
S11302F080FFFDCF80918020909181209C012F5F11
S11303003F4F2093802030938120880F991FFC0158
S1130310E050F04E808191818093380390933903AB
S113032080918020909181208034910521F4109255
S1130330802010928120FF91EF919F918F913F91A6
S11303402F910F900BBE0F9008BE0F900FBE0F9011
S11303501F9018950E94BE010C9462020E945B02D9
S113036058F00E94540240F029F45F3F29F00C94A5
S11303704B0251110C9496020C9451020E94730288
S113038068F39923B1F3552391F3951B550BBB27C0
S1130390AA2762177307840738F09F5F5F4F220F05
S11303A0331F441FAA1FA9F335D00E2E3AF0E0E8FC
S11303B032D091505040E695001CCAF72BD0FE2F46
S11303C029D0660F771F881FBB1F261737074807DA
S11303D0AB07B0E809F0BB0B802DBF01FF27935892
S11303E05F4F3AF09E3F510578F00C944B020C9409
S11303F096025F3FE4F3983ED4F38695779567952C
S1130400B795F7959F5FC9F7880F911D96958795C6
S113041097F90895E1E0660F771F881FBB1F6217E5
S113042073078407BA0720F0621B730B840BBA0BA3
S1130430EE1F88F7E09508950E947B0288F09F578D
S113044098F0B92F9927B751B0F0E1F0660F771FF4
S1130450881F991F1AF0BA95C9F714C0B13091F0EA
S11304600E949502B1E008950C949502672F782FAD
S11304708827B85F39F0B93FCCF3869577956795AF
S1130480B395D9F73EF490958095709561957F4F1B
S11304908F4F9F4F089597F99F6780E870E060E061
S11304A008959FEF80EC089500240A941616170609
S11304B018060906089500240A9412161306140651
S11304C005060895092E0394000C11F4882352F0B4
S11304D0BB0F40F4BF2B11F460FF04C06F5F7F4F6C
S11304E08F4F9F4F089557FD9058440F551F59F053
S11304F05F3F71F04795880F97FB991F61F09F3F0D
S113050079F087950895121613061406551FF2CF35
S11305104695F1DF08C0161617061806991FF1CF85
S113052086957105610508940895E894BB276627AC
S11305307727CB0197F908950E94AF020C946202C9
S11305400E94540238F00E945B0220F0952311F0BF
S11305500C944B020C94510211240C9496020E94A8
S1130560730270F3959FC1F3950F50E0551F629F7E
S1130570F001729FBB27F00DB11D639FAA27F00DF8
S1130580B11DAA1F649F6627B00DA11D661F829F1F
S11305902227B00DA11D621F739FB00DA11D621F04
S11305A0839FA00D611D221F749F3327A00D611D21
S11305B0231F849F600D211D822F762F6A2F112403
S11305C09F5750409AF0F1F088234AF0EE0FFF1F36
S11305D0BB1F661F771F881F91505040A9F79E3F8D
S11305E0510580F00C944B020C9496025F3FE4F3A7
S11305F0983ED4F3869577956795B795F795E795E3
S11306009F5FC1F7FE2B880F911D9695879597F9EB
S10906100895F894FFCFE9
S11306160008C8088F09520A0F0BC50B710C120D7E
S1130626A70D2E0EA60E0D0F630FA70FD80FF50FED
S1130636FF0FF50FD80FA70F630F0D0FA60E2E0E83
S1130646A70D120D710CC50B0F0B520A8F09C808A2
S1130656000837077006AD05F0043A048E03ED0270
S11306665802D1015901F2009C00580027000A00E3
S113067600000A00270058009C00F2005901D1012D
S11306865802ED028E033A04F004AD0570063707EE
S9030000FC
