:100000000C94FE000C940E010C940E010C940E0145
:100010000C940E010C940E010C940E010C940E0124
:100020000C940E010C940E010C940E010C940E0114
:100030000C940E010C940E010C940E010C940E0104
:100040000C940E010C940E010C940E010C940E01F4
:100050000C940E010C940E010C940E010C940E01E4
:100060000C940E010C940E010C940E010C940E01D4
:100070000C940E010C940E010C940E010C940E01C4
:100080000C940E010C940E010C940E010C940E01B4
:100090000C940E010C940E010C940E010C940E01A4
:1000A0000C940E010C940E010C940E010C940E0194
:1000B0000C940E010C940E010C940E010C940E0184
:1000C0000C940E010C940E010C940E010C940E0174
:1000D0000C940E010C940E010C940E010C940E0164
:1000E0000C940E010C940E010C940E010C940E0154
:1000F0000C940E010C940E010C940E010C940E0144
:100100000C940E010C940E010C940E010C940E0133
:100110000C940E010C940E010C940E010C940E0123
:100120000C940E010C940E010C940E010C940E0113
:100130000C940E010C940E010C940E010C940E0103
:100140000C940E010C940E010C940E010C940E01F3
:100150000C940E010C940E010C940E010C940E01E3
:100160000C940E010C940E010C940E010C940E01D3
:100170000C940E010C940E010C940E010C940E01C3
:100180000C940E010C940E010C940E010C940E01B3
:100190000C940E010C940E010C940E010C940E01A3
:1001A0000C940E010C940E010C940E010C940E0193
:1001B0000C940E010C940E010C940E010C940E0183
:1001C0000C940E010C940E010C940E010C940E0173
:1001D0000C940E010C940E010C940E010C940E0163
:1001E0000C940E010C940E010C940E010C940E0153
:1001F0000C940E010C940E010C940E0111241FBEE0
:10020000CFEFCDBFDFE3DEBF00E00CBF18BE19BEED
:100210001ABE1BBE0E9453010C94E9020C9400000C
:1002200081E08093220684E080932106E0E2F3E0FF
:1002300088E18283118285E080830895CF92DF92E6
:10024000EF92FF926B017C0120E030E0A9010E9457
:100250005C0188231CF120E030E040E250E4C7015B
:10026000B6010E9477021816CCF0E0E2F3E0858137
:1002700080FFFDCF20E030EF4FE755E4C701B60126
:100280000E947C0220E030E040E250E40E946101E4
:100290000E94D3016093380370933903FF90EF906D
:1002A000DF90CF9008950E9410016AE979E989ED05
:1002B0009FE30E941E01FFCF0E94020208F481E02A
:1002C00008950E9475010C943D020E94360258F078
:1002D0000E942F0240F029F45F3F29F00C9426027F
:1002E00051110C9471020C942C020E944E0268F37E
:1002F0009923B1F3552391F3951B550BBB27AA27DF
:1003000062177307840738F09F5F5F4F220F331F18
:10031000441FAA1FA9F335D00E2E3AF0E0E832D0E0
:1003200091505040E695001CCAF72BD0FE2F29D0E3
:10033000660F771F881FBB1F261737074807AB07B5
:10034000B0E809F0BB0B802DBF01FF2793585F4F2A
:100350003AF09E3F510578F00C9426020C947102FD
:100360005F3FE4F3983ED4F3869577956795B7950C
:10037000F7959F5FC9F7880F911D9695879597F917
:100380000895E1E0660F771F881FBB1F6217730790
:100390008407BA0720F0621B730B840BBA0BEE1FA5
:1003A00088F7E09508950E94560288F09F5798F0CC
:1003B000B92F9927B751B0F0E1F0660F771F881F6A
:1003C000991F1AF0BA95C9F714C0B13091F00E9484
:1003D0007002B1E008950C947002672F782F88277F
:1003E000B85F39F0B93FCCF3869577956795B395AB
:1003F000D9F73EF490958095709561957F4F8F4F1A
:100400009F4F0895990F0008550FAA0BE0E8FEEFE3
:1004100016161706E807F907C0F012161306E407C8
:10042000F50798F0621B730B840B950B39F40A26C1
:1004300061F0232B242B252B21F408950A2609F49F
:10044000A140A6958FEF811D811D089597F99F67A3
:1004500080E870E060E008959FEF80EC089500244C
:100460000A941616170618060906089500240A9419
:1004700012161306140605060895092E0394000C9F
:1004800011F4882352F0BB0F40F4BF2B11F460FF2E
:1004900004C06F5F7F4F8F4F9F4F089557FD905857
:1004A000440F551F59F05F3F71F04795880F97FB38
:1004B000991F61F09F3F79F08795089512161306F2
:1004C0001406551FF2CF4695F1DF08C01616170621
:1004D0001806991FF1CF8695710561050894089556
:1004E000E894BB2766277727CB0197F908950E94E8
:1004F000020208F48FEF08950E948F020C943D02CF
:100500000E942F0238F00E94360220F0952311F04D
:100510000C9426020C942C0211240C9471020E945B
:100520004E0270F3959FC1F3950F50E0551F629FE7
:10053000F001729FBB27F00DB11D639FAA27F00D3C
:10054000B11DAA1F649F6627B00DA11D661F829F63
:100550002227B00DA11D621F739FB00DA11D621F48
:10056000839FA00D611D221F749F3327A00D611D65
:10057000231F849F600D211D822F762F6A2F112447
:100580009F5750409AF0F1F088234AF0EE0FFF1F7A
:10059000BB1F661F771F881F91505040A9F79E3FD1
:1005A000510580F00C9426020C9471025F3FE4F335
:1005B000983ED4F3869577956795B795F795E79527
:1005C0009F5FC1F7FE2B880F911D9695879597F930
:0605D0000895F894FFCF2E
:00000001FF
